:020000040800F2
:1000000000000220615E0008A1020008AD020008A5
:10001000B3020008B9020008BF0200080000000097
:10002000000000000000000000000000C502000801
:10003000D102000800000000DD020008E90200080B
:10004000AD5E0008AD5E0008AD5E0008AD5E000864
:10005000AD5E0008AD5E0008AD5E0008AD5E000854
:10006000AD5E0008AD5E0008AD5E0008AD5E000844
:10007000AD5E0008AD5E0008AD5E0008AD5E000834
:10008000AD5E0008AD5E0008AD5E0008AD5E000824
:10009000AD5E0008AD5E0008AD5E0008AD5E000814
:1000A000AD5E0008AD5E0008AD5E0008AD5E000804
:1000B000AD5E0008AD5E0008AD5E0008AD5E0008F4
:1000C000AD5E0008AD5E0008AD5E0008AD5E0008E4
:1000D000AD5E0008AD5E0008AD5E0008AD5E0008D4
:1000E000AD5E0008AD5E0008AD5E0008AD5E0008C4
:1000F000AD5E0008AD5E0008AD5E0008AD5E0008B4
:10010000AD5E0008AD5E0008AD5E0008AD5E0008A3
:10011000AD5E0008AD5E0008AD5E0008AD5E000893
:10012000AD5E0008AD5E0008AD5E0008AD5E000883
:10013000AD5E0008AD5E0008AD5E0008AD5E000873
:10014000AD5E0008AD5E0008AD5E0008AD5E000863
:10015000AD5E0008AD5E0008AD5E0008AD5E000853
:10016000AD5E0008AD5E0008AD5E0008AD5E000843
:10017000AD5E0008AD5E0008AD5E00080000000046
:08018000AD5E0008AD5E000851
:1001880080B400AF034B4FF000629A6000BFBD46D9
:1001980080BC704700ED00E080B487B000AF00235A
:1001A8003B6100237B610223FB600023BB600223C9
:1001B8007B60344B9B6803F00C033B613B69082B65
:1001C80011D03B69082B44D83B69002B03D03B690D
:1001D800042B04D03DE02C4B2C4A1A603DE02A4BFE
:1001E8002B4A1A6039E0274B5B689B0D03F001032B
:1001F800BB60244B5B6803F03F037B60BB68002B4C
:100208000CD0234A7B68B2FBF3F31E4A526892096A
:10021800C2F3080202FB03F37B610BE01B4A7B6815
:10022800B2FBF3F3174A52689209C2F3080202FBC1
:1002380003F37B61134B5B681B0C03F0030301336F
:100248005B00FB607A69FB68B2FBF3F30E4A13604C
:1002580003E00D4B0D4A1A6000BF0A4B9B681B094F
:1002680003F00F030B4AD35C3B61074B1A683B69E9
:1002780022FA03F3044A136000BF1C37BD4680BC52
:10028800704700BF00380240000000200024F4003E
:1002980040787D01DC5F000880B400AF00BFBD4638
:1002A80080BC704780B400AFFEE780B400AFFEE7C3
:1002B80080B400AFFEE780B400AFFEE780B400AFC3
:1002C80000BFBD4680BC704780B400AF00BFBD46CC
:1002D80080BC704780B400AF00BFBD4680BC70478B
:1002E80080B500AF05F0E0F800BF80BD80B500AF75
:1002F80005F050F800F034F8642000F001F8FBE74E
:1003080080B582B000AF7860134B1B6B124A43F084
:1003180008031363114B1B68104A23F07F431360D3
:100328000E4B1B680D4A43F0AA4313600B4B5B69E5
:100338000A4A43F400535361786805F00DF9074BF6
:100348005B69064A23F400535361786805F004F9A1
:1003580000BF0837BD4680BD00380240000C02408F
:1003680080B594B000AF07F1200330220021184671
:1003780005F0A2FD07F10C0300221A605A609A608A
:10038800DA601A610023BB60224B1B6C214A43F0E0
:10039800805313641F4B1B6C03F08053BB60BB6816
:1003A80000237B601C4B1B681B4A43F4804313608B
:1003B800194B1B6803F480437B607B6802233B6214
:1003C8000123FB6210233B630023BB6307F1200377
:1003D800184600F03CFD0346002B01D000F01EF843
:1003E8000F23FB6000233B6100237B610023BB617B
:1003F8000023FB6107F10C030021184600F096FF6B
:100408000346002B01D000F009F800BF5037BD4665
:1004180080BD00BF003802400070004080B400AFCB
:1004280000BFBD4680BC704780B586B000AF78601D
:10043800144A154BD31A7B617B693B61134B1B68CC
:10044800002B02D1114B124A1A60104B1A687B68B4
:1004580013443A699A4207D205F026FD03460C2256
:100468001A604FF0FF3309E0084B1B68FB60074B2D
:100478001A687B681344054A1360FB6818461837E6
:10048800BD4680BD0000022000040000400400209A
:100498007004002080B483B000AF00237B600F4B52
:1004A8005B6C0E4A43F4804353640C4B5B6C03F45F
:1004B80080437B607B6800233B60084B1B6C074ACA
:1004C80043F080531364054B1B6C03F080533B606F
:1004D8003B6800BF0C37BD4680BC704700380240FF
:1004E80080B400AF00BFBD4680BC704780B400AF89
:1004F80001231846BD4680BC704780B582B000AF66
:100508007860396005F0D0FC034616221A604FF077
:10051800FF3318460837BD4680BD80B582B000AFAE
:1005280078604FF0FF317868FFF7E7FFFEE780B5A6
:1005380086B000AFF860B9607A6000237B610AE09A
:10054800AFF300800146BB685A1CBA60CAB21A7081
:100558007B6901337B617A697B689A42F0DB7B684F
:1005680018461837BD4680BD80B586B000AFF86024
:10057800B9607A6000237B6109E0BB685A1CBA60E5
:100588001B781846AFF300807B6901337B617A6979
:100598007B689A42F1DB7B6818461837BD4680BDF8
:1005A80080B483B000AF78604FF0FF3318460C3743
:1005B800BD4680BC704780B483B000AF78603960B6
:1005C8003B684FF400525A60002318460C37BD466A
:1005D80080BC704780B483B000AF786001231846B0
:1005E8000C37BD4680BC704780B485B000AFF8605A
:1005F800B9607A60002318461437BD4680BC70473E
:100608000EB480B482B000AF78604FF0FF33184664
:100618000837BD4680BC03B0704780B582B000AFD4
:10062800786005F041FC03460A221A604FF0FF3358
:1006380018460837BD4680BD80B582B000AF7860E7
:1006480005F032FC034602221A604FF0FF331846C9
:100658000837BD4680BD80B483B000AF78604FF0E6
:10066800FF3318460C37BD4680BC704780B483B052
:1006780000AF786039603B684FF400525A6000233D
:1006880018460C37BD4680BC704780B582B000AFB5
:100698007860396005F008FC03461F221A604FF0A5
:1006A800FF3318460837BD4680BD80B500AF05F05A
:1006B800FBFB03460B221A604FF0FF33184680BD40
:1006C80080B584B000AFF860B9607A6005F0ECFBE3
:1006D80003460C221A604FF0FF3318461037BD4608
:1006E80080BD000080B582B000AF00237B600E4B58
:1006F80001221A6004F0EAFE786009E004F0E6FEE0
:1007080002467B68D31AB3F57A7F01D9032306E042
:10071800064B5B6803F00803082BEFD1002318464B
:100728000837BD4680BD00BFA4000E4200700040DF
:1007380080B582B000AF00237B600E4B00221A60A8
:1007480004F0C4FE786009E004F0C0FE02467B684D
:10075800D31AB3F57A7F01D9032306E0064B5B6809
:1007680003F00803082BEFD0002318460837BD46CE
:1007780080BD00BFA4000E420070004080B400AFEE
:10078800034B01221A6000BFBD4680BC704700BF02
:1007980024000E4280B400AF034B00221A6000BF51
:1007A800BD4680BC704700BF24000E4280B400AF35
:1007B800034B1B6803F480431846BD4680BC704752
:1007C8000070004080B586B000AF786000237B6180
:1007D80000233B611A4B1B6C194A43F08053136486
:1007E800174B1B6C03F080533B613B690023FB6094
:1007F800144B1B6823F4804212497B6813430B6037
:10080800104B1B6803F48043FB60FB6804F05EFE3A
:10081800786109E004F05AFE02467B69D31AB3F501
:100828007A7F01D9032307E0064B5B6803F4804312
:10083800B3F5804FEED1002318461837BD4680BD6A
:10084800003802400070004080B586B000AFF86004
:10085800B960C7E900230123FB75234B1B7E012BDD
:1008680001D102233BE0204B01221A764CF2503092
:1008780000F0BAF90346FB75FB7D002B2BD1FB6812
:10088800002B05D13B781946B86800F063FA16E0EA
:10089800FB68012B05D13B881946B86800F038FA87
:1008A8000DE0FB68022B05D13B681946B86800F0DB
:1008B8000DFA04E0D7E90023B86800F0D5F94CF246
:1008C800503000F091F90346FB75084B1B69074A45
:1008D80023F001031361044B00221A76FB7D1846AE
:1008E8001837BD4680BD00BF48040020003C0240C8
:1008F80080B586B000AFF860B960C7E9002300236F
:10090800FB75204B1B7E012B01D1022335E01D4BCB
:1009180001221A761C4B1B691B4A43F08073136132
:10092800194B1B69184A43F000731361154B0322D6
:100938001A70144ABB685361FB68002B05D13B78D9
:100948001946B86800F006FA16E0FB68012B05D1D5
:100958003B881946B86800F0DBF90DE0FB68022B0C
:1009680005D13B681946B86800F0B0F904E0D7E94A
:100978000023B86800F078F9FB7D18461837BD46A3
:1009880080BD00BF48040020003C024080B582B012
:1009980000AF00237B604B4BDB6803F0F203002BB6
:1009A80020D0494B1B78DBB2012B07D1464BDB68C3
:1009B8007B60454B4FF0FF32DA600BE0424B1B780F
:1009C800DBB2022B03D1404B1B697B6002E03E4B3C
:1009D8005B697B6000F0DEF9786800F080F83A4BDC
:1009E80000221A70374BDB6803F00103002B4AD052
:1009F800344B0122DA60344B1B78DBB2012B2DD14A
:100A0800314B5B68013B304A53602F4B5B68002BCE
:100A180015D02D4BDB687B60786800F057F82A4BBF
:100A2800DB680133284AD360274BDB687B60264BA1
:100A38001B7ADBB21946786802F0FEFA23E04FF021
:100A4800FF337B60204A7B68D3601F4B00221A70FB
:100A580002F02CFC786800F039F814E01A4B1B7887
:100A6800DBB2022B07D102F021FC174B1B69184699
:100A780000F02CF804E0144B5B69184600F026F8E7
:100A8800114B00221A70104B1B78DBB2002B14D1CB
:100A98000C4B1B690B4A23F0FF031361094B1B69BD
:100AA800084A23F080731361064B1B69054A23F03B
:100AB80000731361044B00221A7600BF0837BD4645
:100AC80080BD00BF003C02404804002080B483B0D1
:100AD80000AF786000BF0C37BD4680BC704780B45B
:100AE80083B000AF786000BF0C37BD4680BC70474C
:100AF80080B483B000AF0023FB710B4B1B69002B44
:100B08000BDA094B094A5A60074B094A5A60064BE7
:100B18001B69002B01DA0123FB71FB7918460C379E
:100B2800BD4680BC704700BF003C024023016745BA
:100B3800AB89EFCD80B400AF054B1B69044A43F085
:100B48000043136100231846BD4680BC704700BFB0
:100B5800003C024080B400AF094B5B6903F001031D
:100B6800002B07D0064B074A9A60054B064A9A6045
:100B7800002300E001231846BD4680BC704700BF33
:100B8800003C02403B2A19087F6E5D4C80B400AFE0
:100B9800054B5B69044A43F001035361002318467F
:100BA800BD4680BC704700BF003C024080B500AF26
:100BB800074B1B78DBB2064A43F00203DBB2137023
:100BC8004CF2503000F010F80346184680BD00BFC4
:100BD800143C024080B400AF024BDB691846BD46A6
:100BE80080BC70474804002080B584B000AF7860AE
:100BF8000023FB601A4B0022DA6104F067FCF860FE
:100C080010E07B68B3F1FF3F0CD07B68002B07D066
:100C180004F05CFC0246FB68D31A7A689A4201D257
:100C2800032319E00F4BDB6803F48033002BE8D172
:100C38000C4BDB6803F00103002B02D0094B0122A7
:100C4800DA60084BDB6803F0F203002B03D000F0F6
:100C5800A1F8012300E0002318461037BD4680BDE7
:100C680048040020003C024080B485B000AFF86022
:100C7800C7E90023144B1B69134A23F4407313611B
:100C8800114B1B69104A43F4407313610E4B1B69E7
:100C98000D4A43F001031361FB683A681A60BFF319
:100CA8006F8F00BFD7E900014FF000024FF000033B
:100CB8000A000023F968043113460B6000BF14379B
:100CC800BD4680BC704700BF003C024080B483B082
:100CD80000AF786039600D4B1B690C4A23F44073F0
:100CE80013610A4B1B69094A43F400731361074BEC
:100CF8001B69064A43F0010313617B683A681A606E
:100D080000BF0C37BD4680BC704700BF003C0240A6
:100D180080B483B000AF78600B467B800C4B1B69B6
:100D28000B4A23F440731361094B1B69084A43F4C7
:100D380080731361064B1B69054A43F00103136175
:100D48007B687A881A8000BF0C37BD4680BC704724
:100D5800003C024080B483B000AF78600B46FB7063
:100D68000B4B1B690A4A23F440731361084B084A6A
:100D78001B691361064B1B69054A43F001031361A4
:100D88007B68FA781A7000BF0C37BD4680BC704784
:100D9800003C024080B400AF274BDB6803F010032F
:100DA800002B08D0254BDB6943F01003234AD3619D
:100DB800214B1022DA60204BDB6803F02003002B64
:100DC80008D01E4BDB6943F008031C4AD3611A4B59
:100DD8002022DA60184BDB6803F04003002B08D0B0
:100DE800164BDB6943F00403144AD361124B4022CB
:100DF800DA60114BDB6803F08003002B08D00F4B3F
:100E0800DB6943F002030D4AD3610B4B8022DA60A1
:100E1800094BDB6803F00203002B08D0074BDB69A2
:100E280043F02003054AD361034B0222DA6000BF76
:100E3800BD4680BC704700BF003C0240480400200B
:100E480080B400AF00231846BD4680BC704780B50B
:100E580086B000AF78607B68002B01D101235FE288
:100E68007B681B6803F00103002B75D0884B9B68D7
:100E780003F00C03042B0CD0854B9B6803F00C0388
:100E8800082B12D1824B5B6803F48003B3F5800F03
:100E98000BD17F4B1B6803F40033002B5BD07B68BE
:100EA8005B68002B57D101233AE27B685B68B3F596
:100EB800803F06D1764B1B68754A43F48033136034
:100EC8001DE07B685B68B3F5A02F0CD1704B1B68E5
:100ED8006F4A43F4802313606D4B1B686C4A43F4DC
:100EE800803313600BE06A4B1B68694A23F4803334
:100EF8001360674B1B68664A23F4802313607B6882
:100F08005B68002B13D004F0E1FA386108E004F0C4
:100F1800DDFA02463B69D31A642B01D90323FFE1AA
:100F28005B4B1B6803F40033002BF0D014E004F093
:100F3800CDFA386108E004F0C9FA02463B69D31AD1
:100F4800642B01D90323EBE1514B1B6803F40033F5
:100F5800002BF0D100E000BF7B681B6803F00203A0
:100F6800002B63D04A4B9B6803F00C03002B0BD07B
:100F7800474B9B6803F00C03082B1CD1444B5B6860
:100F880003F48003002B16D1414B1B6803F00203C6
:100F9800002B05D07B68DB68012B01D00123BFE162
:100FA8003B4B1B6823F0F8027B681B69DB00384960
:100FB80013430B603AE07B68DB68002B20D0354B8D
:100FC80001221A6004F082FA386108E004F07EFA1F
:100FD80002463B69D31A022B01D90323A0E12C4B0B
:100FE8001B6803F00203002BF0D0294B1B6823F089
:100FF800F8027B681B69DB00254913430B6015E089
:10100800244B00221A6004F061FA386108E004F009
:101018005DFA02463B69D31A022B01D903237FE10B
:101028001B4B1B6803F00203002BF0D17B681B6885
:1010380003F00803002B37D07B685B69002B16D0C0
:10104800154B01221A6004F041FA386108E004F0F7
:101058003DFA02463B69D31A022B01D903235FE10B
:101068000B4B5B6F03F00203002BF0D01CE00A4B24
:1010780000221A6004F02AFA38610FE004F026FA18
:1010880002463B69D31A022B08D9032348E100BF63
:101098000038024000004742800E4742884B5B6F91
:1010A80003F00203002BE9D17B681B6803F00403FB
:1010B800002B00F097800023FB75814B1B6C03F01D
:1010C8008053002B0FD10023BB607D4B1B6C7C4AE7
:1010D80043F0805313647A4B1B6C03F08053BB605E
:1010E800BB680123FB75774B1B6803F48073002BE7
:1010F80018D1744B1B68734A43F48073136004F06F
:10110800E5F9386108E004F0E1F902463B69D31AD1
:10111800022B01D9032303E16A4B1B6803F4807394
:10112800002BF0D07B689B68012B06D1644B1B6FAA
:10113800634A43F0010313671CE07B689B68052B37
:101148000CD15F4B1B6F5E4A43F0040313675C4B83
:101158001B6F5B4A43F0010313670BE0584B1B6F8F
:10116800574A23F001031367554B1B6F544A23F06A
:10117800040313677B689B68002B15D004F0A6F95D
:1011880038610AE004F0A2F902463B69D31A41F239
:101198008832934201D90323C2E0494B1B6F03F005
:1011A8000203002BEED014E004F090F938610AE055
:1011B80004F08CF902463B69D31A41F28832934213
:1011C80001D90323ACE03E4B1B6F03F00203002B55
:1011D800EED1FB7D012B05D1394B1B6C384A23F02E
:1011E800805313647B689B69002B00F09880344B14
:1011F8009B6803F00C03082B5CD07B689B69022B6F
:1012080041D1314B00221A6004F060F9386108E0DE
:1012180004F05CF902463B69D31A022B01D9032377
:101228007EE0274B1B6803F00073002BF0D17B682E
:10123800DA697B681B6A1A437B685B6A9B011A43FD
:101248007B689B6A5B08013B1B041A437B68DB6A6B
:101258001B061B4913434B601B4B01221A6004F009
:1012680035F9386108E004F031F902463B69D31AD0
:10127800022B01D9032353E0114B1B6803F00073C1
:10128800002BF0D04BE0104B00221A6004F01EF93E
:10129800386108E004F01AF902463B69D31A022BB8
:1012A80001D903233CE0064B1B6803F00073002BB5
:1012B800F0D134E07B689B69012B07D101232FE033
:1012C800003802400070004060004742164B5B68DF
:1012D800FB60FB6803F480027B68DB699A421CD1DF
:1012E800FB6803F03F027B681B6A9A4215D1FA68D3
:1012F80047F6C07313407A68526A93420DD1FB686F
:1013080003F440327B689B6A9A4206D1FB6803F07B
:1013180070627B68DB6A9A4201D0012300E00023F7
:1013280018461837BD4680BD0038024080B584B0E5
:1013380000AF786039607B68002B01D10123CCE0D5
:10134800684B1B6803F00F033A689A420CD9654B47
:101358003A68D2B21A70634B1B6803F00F033A68FD
:101368009A4201D00123B8E07B681B6803F00203AE
:10137800002B20D07B681B6803F00403002B05D0EA
:10138800594B9B68584A43F4E05393607B681B6849
:1013980003F00803002B05D0534B9B68524A43F4D3
:1013A80060439360504B9B6823F0F0027B689B6816
:1013B8004D4913438B607B681B6803F00103002BC6
:1013C80044D07B685B68012B07D1474B1B6803F44B
:1013D8000033002B19D101237FE07B685B68022B67
:1013E80003D07B685B68032B07D13F4B1B6803F076
:1013F8000073002B09D101236FE03B4B1B6803F0FE
:101408000203002B01D1012367E0374B9B6823F0CF
:1014180003027B685B68344913438B6004F056F819
:10142800F8600AE004F052F80246FB68D31A41F269
:101438008832934201D903234FE02B4B9B6803F07A
:101448000C027B685B689B009A42EBD1254B1B68BA
:1014580003F00F033A689A420CD2224B3A68D2B290
:101468001A70204B1B6803F00F033A689A4201D0A8
:10147800012332E07B681B6803F00403002B08D0CB
:10148800194B9B6823F4E0527B68DB6816491343C9
:101498008B607B681B6803F00803002B09D0124B94
:1014A8009B6823F460427B681B69DB000E49134389
:1014B8008B6000F0A1F802460B4B9B681B0903F0F8
:1014C8000F030A49CB5C22FA03F3094A1360094B5C
:1014D8001B68184603F0B8FF002318461037BD46AE
:1014E80080BD00BF003C024000380240DC5F0008BD
:1014F800000000200800002080B58CB000AFF86024
:10150800B9607A60FB68002B29D10023BB612B4BA3
:101518001B6B2A4A43F001031363284B1B6B03F030
:101528000103BB61BB694FF48073FB6102233B621B
:101538000323BB6200237B620023FB6207F11C03C9
:1015480019461F4803F08AFA1C4B9B6823F0EC628B
:10155800B9687B680B43194913438B6029E0002362
:101568007B61164B1B6B154A43F004031363134B43
:101578001B6B03F004037B617B694FF40073FB6111
:1015880002233B620323BB6200237B620023FB62CE
:1015980007F11C0319460B4803F060FA074B9B68D8
:1015A80023F078427B68D900BB680B430349134397
:1015B8008B6000BF3037BD4680BD00BF0038024099
:1015C800000002400008024080B400AF034B012233
:1015D8001A6000BFBD4680BC704700BF4C00474240
:1015E80080B400AF034B00221A6000BFBD4680BC28
:1015F800704700BF4C0047422DE9B04F90B000AF94
:1016080000237B630023FB6300233B630023BB634E
:10161800594B9B6803F00C03082B0DD0082B00F2E4
:10162800A280002B02D0042B03D09CE0534BBB6359
:101638009CE0534BBB6399E04F4B5B6803F03F035F
:101648007B634D4B5B6803F48003002B27D04A4B28
:101658005B689B0900223B627A623B6AC3F308001D
:101668000021474B03FB01F2002300FB03F3134463
:10167800434AA0FB0221F962BA62FA6A1344FB6288
:101688007B6B0022BB61FA61D7E90623D7E90A011F
:1016980004F0F6FA02460B461346FB6355E0364B58
:1016A8005B689B0900223B617A613B69C3F3080AC6
:1016B8004FF0000B52465B464FF000004FF0000120
:1016C800590141EAD261500102460B46B2EB0A08C1
:1016D80063EB0B094FF000024FF000034FEA891348
:1016E80043EA98634FEA8812B2EB080463EB0905F2
:1016F8004FF000024FF00003EB0043EA5473E2009E
:1017080014461D4614EB0A033B6045EB0B037B6054
:101718004FF000024FF00003D7E9004529468B023D
:1017280020462946044643EA945301468A02104655
:1017380019467B6B0022BB60FA60D7E9022304F0EC
:101748009FFA02460B461346FB630B4B5B681B0C68
:1017580003F0030301335B003B63FA6B3B6BB2FBA3
:10176800F3F3BB6302E0054BBB6300BFBB6B1846DA
:101778004037BD46BDE8B08F003802400024F40071
:1017880040787D0180B400AF024B1B681846BD4607
:1017980080BC70470000002080B500AFFFF7F2FF63
:1017A8000246054B9B689B0A03F007030349CB5C81
:1017B80022FA03F3184680BD00380240EC5F0008A7
:1017C80080B500AFFFF7DEFF0246054B9B685B0B59
:1017D80003F007030349CB5C22FA03F3184680BDE4
:1017E80000380240EC5F000880B483B000AF786036
:1017F8007B680F221A60454B1B6803F48023B3F5FE
:10180800802F04D17B684FF4A0225A600EE03F4B32
:101818001B6803F48033B3F5803F04D17B684FF431
:1018280080325A6002E07B6800225A60374B1B689E
:1018380003F00103012B03D17B680122DA6002E087
:101848007B680022DA60314B1B68DB0803F01F025B
:101858007B681A612D4B1B6F03F00403042B03D123
:101868007B6805229A600CE0284B1B6F03F001038C
:10187800012B03D17B6801229A6002E07B68002279
:101888009A60224B5B6F03F00103012B03D17B6845
:1018980001225A6102E07B6800225A611B4B1B68D7
:1018A80003F08073B3F1807F03D17B6802229A61D1
:1018B80002E07B6801229A61144B5B6803F48002A2
:1018C8007B68DA61114B5B6803F03F027B681A6240
:1018D8000E4B5B689B09C3F308027B685A620B4B8B
:1018E8005B6803F4403303F580335B001A0C7B68B4
:1018F8009A62064B5B681B0E03F00F027B68DA6284
:1019080000BF0C37BD4680BC704700BF003802409E
:1019180080B483B000AF786039607B680F221A60AA
:10192800114B9B6803F003027B685A600E4B9B685F
:1019380003F0F0027B689A600B4B9B6803F4E0525B
:101948007B68DA60084B9B68DB0803F4E0527B682D
:101958001A61064B1B6803F00F023B681A6000BF50
:101968000C37BD4680BC704700380240003C02403E
:1019780080B500AF064BDB6803F08003802B04D1F1
:1019880000F00AF8034B80221A7000BF80BD00BF28
:10199800003802400E38024080B400AF00BFBD4698
:1019A80080BC704780B586B000AFF860B9607A60D7
:1019B8003B600023FB75FB689B68802B06D1FB68A6
:1019C8004FF480725A650123FB7531E0FB6893F888
:1019D8003430012B01D102232BE0FB68012283F86C
:1019E8003420FB6893F83530DBB2012B1ED1FB683D
:1019F800022283F83520FB681B681A68FB681B689D
:101A080042F480221A60FB681B683A681A613B6AD4
:101A18007A68B968F86801F070F9FB681B681A6899
:101A2800FB681B6842F001021A6001E00223FB75A3
:101A3800FB7D18461837BD4680BD80B586B000AF1F
:101A4800F860B9607A603B600023FB75FB689B68AF
:101A5800802B06D1FB684FF480725A65012301F090
:101A680010B9FB68DB6B002B07D0FB685B6C002BA5
:101A780003D0FB68DB6C002B05D1FB6840225A655C
:101A8800012301F0FEB8FB6893F83430012B02D132
:101A9800022301F0F6B8FB68012283F83420FB68C2
:101AA80093F83530DBB2012B41F0E480FB68022269
:101AB80083F83520FB6800225A65FB681B681A68A2
:101AC800FB681B6842F480221A60FB681B683A684E
:101AD8001A613B6A7A68B968F86801F00EF9FB6820
:101AE8001B681A468C4B9A4260D9FB681B688B4A64
:101AF800934257D0FB681B68894A934250D0FB68D1
:101B08001B68884A934249D0FB681B68864A9342FF
:101B180042D0FB681B68854A93423AD0FB681B6831
:101B2800834A934232D0FB681B68824A93422AD088
:101B3800FB681B68804A934222D0FB681B687F4A77
:101B480093421AD0FB681B687D4A934212D0FB6807
:101B58001B687C4A93420AD0FB681B687A4A934206
:101B680002D14FF400131EE04FF000631BE04FF466
:101B7800001318E04FF4001315E04FF4001312E0BF
:101B88004FF400630FE04FF400630CE04FF4006380
:101B980009E04FF4006306E0202304E0202302E07C
:101BA800202300E02023694AD3604EE1FB681B68CC
:101BB8001A46674B9A4260D9FB681B68574A93429A
:101BC80057D0FB681B68564A934250D0FB681B6885
:101BD800544A934249D0FB681B68534A934242D007
:101BE800FB681B68514A93423AD0FB681B68504A0D
:101BF800934232D0FB681B684E4A93422AD0FB6856
:101C08001B684D4A934222D0FB681B684B4A93429B
:101C18001AD0FB681B684A4A934212D0FB681B68BB
:101C2800484A93420AD0FB681B68474A934202D14C
:101C38004FF400131EE04FF000631BE04FF4001355
:101C480018E04FF4001315E04FF4001312E04FF4BE
:101C580000630FE04FF400630CE04FF4006309E009
:101C68004FF4006306E0202304E0202302E0202351
:101C780000E02023354A9360E7E0FB681B681A46BA
:101C8800344B9A4240F28180FB681B68234A934296
:101C980077D0FB681B68224A934270D0FB681B68A8
:101CA800204A934269D0FB681B681F4A934262D05E
:101CB800FB681B681D4A93425AD0FB681B681C4A84
:101CC800934252D0FB681B681A4A93424AD0FB6879
:101CD8001B68194A934242D0FB681B68174A934213
:101CE8003AD0FB681B68164A934212D0FB681B68FF
:101CF800144A93420AD0FB681B68134A934202D1E4
:101D08004FF400133EE04FF000633BE04FF4001344
:101D180038E04FF4001335E0586402401060024088
:101D28001064024070600240706402402860024003
:101D38002864024088600240886402404060024093
:101D480040640240A0600240A06402400064024077
:101D5800B8600240586002404FF4001312E04FF49C
:101D680000630FE04FF400630CE04FF4006309E0F8
:101D78004FF4006306E0202304E0202302E0202340
:101D880000E020238C4AD3605FE0FB681B688B4A25
:101D9800934257D0FB681B68894A934250D0FB682E
:101DA8001B68884A934249D0FB681B68864A93425D
:101DB80042D0FB681B68854A93423AD0FB681B688F
:101DC800834A934232D0FB681B68824A93422AD0E6
:101DD800FB681B68804A934222D0FB681B687F4AD5
:101DE80093421AD0FB681B687D4A934212D0FB6865
:101DF8001B687C4A93420AD0FB681B687A4A934264
:101E080002D14FF400131EE04FF000631BE04FF4C3
:101E1800001318E04FF4001315E04FF4001312E01C
:101E28004FF400630FE04FF400630CE04FF40063DD
:101E380009E04FF4006306E0202304E0202302E0D9
:101E4800202300E020235C4A9360FB681B681A4645
:101E5800664B9A4260D9FB681B68584A934257D030
:101E6800FB681B68564A934250D0FB681B68554A6A
:101E7800934249D0FB681B68534A934242D0FB689F
:101E88001B68524A93423AD0FB681B68504A9342F7
:101E980032D0FB681B684F4A93422AD0FB681B6804
:101EA8004D4A934222D0FB681B684C4A93421AD091
:101EB800FB681B684A4A934212D0FB681B68494A70
:101EC80093420AD0FB681B68474A934202D14FF4F9
:101ED80080131EE04FF080631BE04FF4801318E07E
:101EE8004FF4801315E04FF4801312E04FF4806331
:101EF8000FE04FF480630CE04FF4806309E04FF487
:101F0800806306E0102304E0102302E0102300E0C1
:101F18001023374AD3604FE1FB681B681A46354BDC
:101F28009A4240F28280FB681B68244A934278D028
:101F3800FB681B68224A934271D0FB681B68214AE0
:101F480093426AD0FB681B681F4A934263D0FB68C0
:101F58001B681E4A93425BD0FB681B681C4A93426D
:101F680053D0FB681B681B4A93424BD0FB681B6825
:101F7800194A934243D0FB681B68184A93423BD0E6
:101F8800FB681B68164A934212D0FB681B68154A07
:101F980093420AD0FB681B68134A934202D14FF45C
:101FA80080133FE04FF080633CE04FF4801339E04A
:101FB8004FF4801336E000BF00600240106002401A
:101FC8001064024070600240706402402860024061
:101FD80028640240886002408864024040600240F1
:101FE80040640240A0600240A0640240586402407D
:101FF80000640240B86002404FF4801312E04FF4CE
:1020080080630FE04FF480630CE04FF4806309E0D5
:102018004FF4806306E0102304E0102302E010234D
:1020280000E010238C4A9360C6E0FB681B681A46E0
:102038008A4B9A4260D9FB681B68894A934257D0F9
:10204800FB681B68874A934250D0FB681B68864A26
:10205800934249D0FB681B68844A934242D0FB688C
:102068001B68834A93423AD0FB681B68814A9342B3
:1020780032D0FB681B68804A93422AD0FB681B68F1
:102088007E4A934222D0FB681B687D4A93421AD04D
:10209800FB681B687B4A934212D0FB681B687A4A2C
:1020A80093420AD0FB681B68784A934202D14FF4E6
:1020B80080131EE04FF080631BE04FF4801318E09C
:1020C8004FF4801315E04FF4801312E04FF480634F
:1020D8000FE04FF480630CE04FF4806309E04FF4A5
:1020E800806306E0102304E0102302E0102300E0E0
:1020F8001023674AD3605FE0FB681B68584A934225
:1021080057D0FB681B68574A934250D0FB681B683E
:10211800554A934249D0FB681B68544A934242D0BF
:10212800FB681B68524A93423AD0FB681B68514AC5
:10213800934232D0FB681B684F4A93422AD0FB680F
:102148001B684E4A934222D0FB681B684C4A934254
:102158001AD0FB681B684B4A934212D0FB681B6875
:10216800494A93420AD0FB681B68484A934202D105
:102178004FF480131EE04FF080631BE04FF4801390
:1021880018E04FF4801315E04FF4801312E04FF479
:1021980080630FE04FF480630CE04FF4806309E044
:1021A8004FF4806306E0102304E0102302E01023BC
:1021B80000E01023364A9360FB681B681A46354BCB
:1021C8009A4240F28280FB681B68254A934278D085
:1021D800FB681B68234A934271D0FB681B68224A3C
:1021E80093426AD0FB681B68204A934263D0FB681D
:1021F8001B681F4A93425BD0FB681B681D4A9342C9
:1022080053D0FB681B681C4A93424BD0FB681B6881
:102218001A4A934243D0FB681B68194A93423BD041
:10222800FB681B68174A934212D0FB681B68164A62
:1022380093420AD0FB681B68144A934202D14FF4B8
:1022480000233FE04FF000733CE04FF4002339E0F7
:102258004FF4002336E000BF00640240586002409B
:1022680010600240106402407060024070640240D6
:102278002860024028640240886002408864024066
:102288004060024040640240A0600240A0640240F6
:1022980000600240586402404FF4002312E04FF4FB
:1022A80000730FE04FF400730CE04FF4007309E083
:1022B8004FF4007306E0082304E0082302E0082333
:1022C80000E008238C4AD3604EE1FB681B681A467D
:1022D8008A4B9A4260D9FB681B68894A934257D057
:1022E800FB681B68874A934250D0FB681B68864A84
:1022F800934249D0FB681B68844A934242D0FB68EA
:102308001B68834A93423AD0FB681B68814A934210
:1023180032D0FB681B68804A93422AD0FB681B684E
:102328007E4A934222D0FB681B687D4A93421AD0AA
:10233800FB681B687B4A934212D0FB681B687A4A89
:1023480093420AD0FB681B68784A934202D14FF443
:1023580000231EE04FF000731BE04FF4002318E049
:102368004FF4002315E04FF4002312E04FF40073FC
:102378000FE04FF400730CE04FF4007309E04FF4E2
:10238800007306E0082304E0082302E0082300E0C5
:102398000823594A9360E7E0FB681B681A46644BB8
:1023A8009A4260D9FB681B68554A934257D0FB682C
:1023B8001B68544A934250D0FB681B68524A9342A8
:1023C80049D0FB681B68514A934242D0FB681B689E
:1023D8004F4A93423AD0FB681B684E4A934232D028
:1023E800FB681B684C4A93422AD0FB681B684B4A1F
:1023F800934222D0FB681B68494A93421AD0FB6873
:102408001B68484A934212D0FB681B68464A9342AD
:102418000AD0FB681B68454A934202D14FF4002357
:102428001EE04FF000731BE04FF4002318E04FF458
:10243800002315E04FF4002312E04FF400730FE07F
:102448004FF400730CE04FF4007309E04FF400738D
:1024580006E0082304E0082302E0082300E008233C
:10246800344AD36080E0FB681B68254A934278D0E1
:10247800FB681B68234A934271D0FB681B68224A99
:1024880093426AD0FB681B68204A934263D0FB687A
:102498001B681F4A93425BD0FB681B681D4A934226
:1024A80053D0FB681B681C4A93424BD0FB681B68DF
:1024B8001A4A934243D0FB681B68194A93423BD09F
:1024C800FB681B68174A934212D0FB681B68164AC0
:1024D80093420AD0FB681B68144A934202D14FF416
:1024E80000233FE04FF000733CE04FF4002339E055
:1024F8004FF4002336E000BF00640240B860024099
:102508001060024010640240706002407064024033
:1025180028600240286402408860024088640240C3
:102528004060024040640240A0600240A064024053
:1025380058600240006002404FF4002312E04FF45C
:1025480000730FE04FF400730CE04FF4007309E0E0
:102558004FF4007306E0082304E0082302E0082390
:1025680000E008238A4A9360FB681B681A46894B77
:102578009A4260D9FB681B68874A934257D0FB6828
:102588001B68864A934250D0FB681B68844A934272
:1025980049D0FB681B68834A934242D0FB681B689A
:1025A800814A93423AD0FB681B68804A934232D0F2
:1025B800FB681B687E4A93422AD0FB681B687D4AE9
:1025C800934222D0FB681B687B4A93421AD0FB686F
:1025D8001B687A4A934212D0FB681B68784A934278
:1025E8000AD0FB681B68774A934202D14FF48023D4
:1025F8001EE04FF080731BE04FF4802318E04FF487
:10260800802315E04FF4802312E04FF480730FE02D
:102618004FF480730CE04FF4807309E04FF480733B
:1026280006E0042304E0042302E0042300E004237A
:10263800654AD36050E1FB681B681A46634B9A42AF
:1026480060D9FB681B68544A934257D0FB681B68E3
:10265800524A934250D0FB681B68514A934249D072
:10266800FB681B684F4A934242D0FB681B684E4A7E
:1026780093423AD0FB681B684C4A934232D0FB68BD
:102688001B684B4A93422AD0FB681B68494A93420D
:1026980022D0FB681B68484A93421AD0FB681B6823
:1026A800464A934212D0FB681B68454A93420AD0B7
:1026B800FB681B68434A934202D14FF480231EE013
:1026C8004FF080731BE04FF4802318E04FF4802311
:1026D80015E04FF4802312E04FF480730FE04FF4BD
:1026E80080730CE04FF4807309E04FF4807306E0C8
:1026F800042304E0042302E0042300E00423324A14
:102708009360E9E0FB681B681A46314B9A4240F235
:102718008380FB681B68204A934279D0FB681B685A
:102728001E4A934272D0FB681B681D4A93426BD0C5
:10273800FB681B681B4A934264D0FB681B681A4AF3
:1027480093425CD0FB681B68184A934254D0FB68DC
:102758001B68174A93424CD0FB681B68154A934282
:1027680044D0FB681B68144A93423CD0FB681B6842
:10277800124A934234D0FB681B68114A93422CD00A
:10278800FB681B680F4A934224D14FF4802340E032
:102798000060024058640240106002401064024029
:1027A8007060024070640240286002402864024061
:1027B80088600240886402404060024040640240F1
:1027C800A0600240A064024000640240B860024079
:1027D800586002404FF080731BE04FF4802318E0EC
:1027E8004FF4802315E04FF4802312E04FF48073F8
:1027F8000FE04FF480730CE04FF4807309E04FF45E
:10280800807306E0042304E0042302E0042300E0CC
:1028180004238B4AD3605FE0FB681B68894A9342B4
:1028280057D0FB681B68884A934250D0FB681B68E6
:10283800864A934249D0FB681B68854A934242D036
:10284800FB681B68834A93423AD0FB681B68824A3C
:10285800934232D0FB681B68804A93422AD0FB68B7
:102868001B687F4A934222D0FB681B687D4A9342CB
:102878001AD0FB681B687C4A934212D0FB681B681D
:102888007A4A93420AD0FB681B68794A934202D17C
:102898004FF480231EE04FF080731BE04FF4802339
:1028A80018E04FF4802315E04FF4802312E04FF432
:1028B80080730FE04FF480730CE04FF4807309E0ED
:1028C8004FF4807306E0042304E0042302E00423A9
:1028D80000E004235A4A9360FB681B681A46654B5C
:1028E8009A425CD9FB681B68564A934253D0FB68EE
:1028F8001B68554A93424CD0FB681B68534A934265
:1029080045D0FB681B68524A93423ED0FB681B685F
:10291800504A934237D0FB681B684F4A934230D0E5
:10292800FB681B684D4A934229D0FB681B684C4AD8
:10293800934222D0FB681B684A4A93421AD0FB682C
:102948001B68494A934212D0FB681B68474A934266
:102958000AD0FB681B68464A934202D14FF4803381
:102968001AE04FF4800317E04FF4803314E04FF47B
:10297800803311E04FF480330EE040230CE0402315
:102988000AE0402308E0402306E0012304E0012395
:1029980002E0012300E00123374AD36041E1FB68EC
:1029A8001B681A46354B9A427CD9FB681B68254A36
:1029B800934273D0FB681B68234A93426CD0FB6830
:1029C8001B68224A934265D0FB681B68204A9342E1
:1029D8005ED0FB681B681F4A934257D0FB681B6890
:1029E8001D4A934250D0FB681B681C4A934249D049
:1029F800FB681B681A4A934242D0FB681B68194A55
:102A080093421AD0FB681B68174A934212D0FB689E
:102A18001B68164A93420AD0FB681B68144A934203
:102A280002D14FF480333AE04FF4800337E04FF49B
:102A3800803334E04FF4803331E04FF480332EE0BC
:102A48000060024010600240106402407060024062
:102A58007064024028600240286402408860024096
:102A6800886402404060024040640240A060024026
:102A7800A06402405864024000640240B86002400A
:102A880040230CE040230AE0402308E0402306E00E
:102A9800012304E0012302E0012300E001237B4A33
:102AA8009360BEE0FB681B681A46794B9A425CD972
:102AB800FB681B68774A934253D0FB681B68764AC9
:102AC80093424CD0FB681B68744A934245D0FB681C
:102AD8001B68734A93423ED0FB681B68714A934255
:102AE80037D0FB681B68704A934230D0FB681B687C
:102AF8006E4A934229D0FB681B686D4A934222D0E4
:102B0800FB681B686B4A93421AD0FB681B686A4AC9
:102B1800934212D0FB681B68684A93420AD0FB684C
:102B28001B68674A934202D14FF480331AE04FF48E
:102B3800800317E04FF4803314E04FF4803311E042
:102B48004FF480330EE040230CE040230AE040239A
:102B580008E0402306E0012304E0012302E001230A
:102B680000E00123574AD3605BE0FB681B68494AD1
:102B7800934253D0FB681B68474A93424CD0FB688A
:102B88001B68464A934245D0FB681B68444A9342F7
:102B98003ED0FB681B68434A934237D0FB681B68EA
:102BA800414A934230D0FB681B68404A934229D07F
:102BB800FB681B683E4A934222D0FB681B683D4A6B
:102BC80093421AD0FB681B683B4A934212D0FB68B9
:102BD8001B683A4A93420AD0FB681B68384A9342FA
:102BE80002D14FF480331AE04FF4800317E04FF41A
:102BF800803314E04FF4803311E04FF480330EE05B
:102C080040230CE040230AE0402308E0402306E08C
:102C1800012304E0012302E0012300E00123294A03
:102C28009360FB681B681A68FB681B6842F0160211
:102C38001A60FB681B685A69FB681B6842F08002CF
:102C48005A61FB681B6C002B03D1FB689B6C002B43
:102C580007D0FB681B681A68FB681B6842F008020B
:102C68001A60FB681B681A68FB681B6842F001025F
:102C78001A6005E0FB68002283F834200223FB7504
:102C8800FB7D18461837BD4680BD00BF0064024072
:102C980058600240106002401064024070600240B8
:102CA8007064024028600240286402408860024044
:102CB800886402404060024040640240A0600240D4
:102CC800A06402400060024080B485B000AFF860A4
:102CD800B9601346FB71FB79002B04D1FB681B68B4
:102CE800BA68DA6003E0FB681B68BA681A610023F7
:102CF80018461437BD4680BC704780B485B000AF15
:102D0800F860B9607A603B60FB681B683A685A6093
:102D1800FB689B68402B08D1FB681B687A689A603F
:102D2800FB681B68BA68DA6007E0FB681B68BA686A
:102D38009A60FB681B687A68DA6000BF1437BD4682
:102D480080BC704780B584B000AF786039600123DB
:102D5800FB730023BB60314B1B7E012B01D1022387
:102D680058E02E4B01221A764CF25030FDF73CFF0A
:102D78000346FB73FB7B002B48D13B684FF0FF32C7
:102D88001A607B681B68012B15D17B681B69DAB256
:102D98007B685B681946104600F02BF94CF25030FE
:102DA800FDF722FF0346FB731D4B1B691C4A23F0EA
:102DB8000403136128E07B689B68BB601CE07B68A8
:102DC8001B69DBB21946B86800F036F94CF250308E
:102DD800FDF70AFF0346FB73114B1B69104A23F0EA
:102DE800FA031361FB7B002B03D03B68BA681A60B7
:102DF8000AE0BB680133BB607B68DA687B689B6864
:102E08001344BA689A42DAD300F050FA034B00220E
:102E18001A76FB7B18461037BD4680BD4804002053
:102E2800003C024080B584B000AF78600023FB739B
:102E3800254B1B7E012B01D1022340E0224B0122AE
:102E48001A76224B1B69214A43F0807313611F4B8A
:102E58001B691E4A43F0007313611C4BF322DA60AE
:102E68007B681B68012B10D1174B02221A707B68F4
:102E78005B68154A13617B681B69DAB27B685B681B
:102E88001946104600F0B5F818E00F4B01221A70E9
:102E98007B68DB680C4A53607B689B680A4AD3608E
:102EA8007B681B69DAB2084B1A727B689A687B6880
:102EB8001B69DBB21946104600F0BEF8FB7B1846CA
:102EC8001037BD4680BD00BF48040020003C0240CA
:102ED80080B584B000AF78600123FB73324B1B7E52
:102EE800012B01D102235BE02F4B01221A767B686C
:102EF8001B6803F00103002B18D07B685B68012B6B
:102F08000AD17B689A687B68DB681946104600F02E
:102F1800DBF80346FB7309E07B689A687B68DB682B
:102F28001946104600F0F2F80346FB737B681B68ED
:102F380003F00203002B07D07B681B69DBB218463D
:102F480000F004F90346FB737B681B6803F0040375
:102F5800002B13D07B681B7E03F02003D8B27B685C
:102F68001B7E03F04003D9B27B681B7E23F07F03EE
:102F7800DBB21A4600F004F90346FB737B681B6852
:102F880003F00803002B07D07B685B69DBB21846A7
:102F980000F026F90346FB73034B00221A76FB7BED
:102FA80018461037BD4680BD4804002080B582B061
:102FB80000AF78607B680F221A6000F03DF9034685
:102FC8001A467B689A6000F043F903461A467B6804
:102FD8001A6100F023F903461A467B681A7600F056
:102FE80057F903461A467B685A6100BF0837BD4641
:102FF80080BD80B483B000AF03463960FB710D4BD0
:103008001B690C4A23F4407313610A4B1B69094A74
:1030180043F004031361074B1A69FB791B0213433E
:10302800044A43F48033136100BF0C37BD4680BCAB
:10303800704700BF003C024080B485B000AF7860A4
:103048000B46FB700023FB60FB78002B02D10023AA
:10305800FB6010E0FB78012B03D14FF48073FB6019
:1030680009E0FB78022B03D14FF40073FB6002E008
:103078004FF44073FB60134B1B69124A23F44073EF
:103088001361104B1A690F49FB6813430B610D4B11
:103098001B690C4A23F0F80313610A4B1A697B6811
:1030A800DB001343074A43F002031361054B1B6916
:1030B800044A43F48033136100BF1437BD4680BC13
:1030C800704700BF003C024080B584B000AF786014
:1030D80039600023FB734CF25030FDF785FD034641
:1030E800FB73FB7B002B0AD1074B1B889AB27B68CA
:1030F8009BB2DB439BB2044913409BB20B80FB7B22
:1031080018461037BD4680BD163C024080B584B0D5
:1031180000AF786039600023FB734CF25030FDF744
:1031280063FD0346FB73FB7B002B08D1064B1B8812
:103138009AB27B689BB2044913439BB20B80FB7B1A
:1031480018461037BD4680BD163C024080B584B095
:1031580000AF0346FB710023FB734CF25030FDF7C0
:1031680043FD0346FB73FB7B002B02D1034AFB792B
:103178001370FB7B18461037BD4680BD153C0240D6
:1031880080B584B000AF0346FB710B46BB71134694
:103198007B71FF23FB730023BB734CF25030FDF7A8
:1031A80023FD0346BB73BB7B002B11D10B4B1B7854
:1031B800DBB203F01F03FB73BA79FB7B1343DAB26C
:1031C8007B791343DAB20549FB791343DBB20B7001
:1031D800BB7B18461037BD4680BD00BF143C02407B
:1031E80080B483B000AF0346FB710B4B1B78DBB296
:1031F800094A23F00C03DBB21370074B1B78DAB2D1
:103208000549FB791343DBB20B70002318460C37D2
:10321800BD4680BC704700BF143C024080B400AF7C
:10322800044B5B69DBB223F01F03DBB21846BD46D3
:1032380080BC7047003C024080B400AF034B1B8841
:103248009BB21846BD4680BC704700BF163C024082
:1032580080B483B000AFAA23FB710C4B1B78DBB2A0
:10326800CC2B02D1CC23FB7109E0084B1B78DBB2D5
:10327800AA2B02D1AA23FB7101E05523FB71FB792C
:1032880018460C37BD4680BC704700BF153C02404D
:1032980080B400AF044B1B78DBB203F00C03DBB245
:1032A8001846BD4680BC7047143C024080B400AF4D
:1032B8001F4B1B6803F40073002B17D01C4B1B68B3
:1032C8001B4A23F400731360194B1B68184A43F414
:1032D80000631360164B1B68154A23F400631360E0
:1032E800134B1B68124A43F400731360104B1B689E
:1032F80003F48063002B17D00D4B1B680C4A23F492
:10330800806313600A4B1B68094A43F480531360B7
:10331800074B1B68064A23F480531360044B1B6851
:10332800034A43F48063136000BFBD4680BC704706
:10333800003C024080B586B000AF786000237B6116
:1033480002F0C4F838617B68002B01D1012399E0B1
:103358007B68002283F834207B68022283F83520BA
:103368007B681B681A687B681B6822F001021A6078
:103378000FE002F0ABF802463B69D31A052B08D9D7
:103388007B6820225A657B68032283F83520032353
:1033980078E07B681B681B6803F00103002BE8D109
:1033A8007B681B681B687B617A69384B13407B61BB
:1033B8007B685A687B689B681A437B68DB681A439A
:1033C8007B681B691A437B685B691A437B689B6946
:1033D8001A437B68DB691A437B681B6A13437A6963
:1033E80013437B617B685B6A042B07D17B68DA6ACD
:1033F8007B681B6B13437A6913437B617B681B688B
:103408007A691A607B681B685B697B617B6923F05A
:1034180007037B617B685B6A7A6913437B617B681E
:103428005B6A042B17D17B689B6A7A6913437B61BB
:103438007B68DB6A002B0ED0786800F047FD0346F6
:10344800002B08D07B6840225A657B68012283F8EC
:103458003520012316E07B681B687A695A61786811
:1034680000F0FFFC0346FB607B68DB6D3F229A405F
:10347800FB689A607B6800225A657B68012283F8A2
:103488003520002318461837BD4680BD3F8010F010
:1034980080B584B000AF78607B68002B01D1012330
:1034A80050E07B6893F83530DBB2022B01D1022360
:1034B80048E07B681B681A687B681B6822F0010279
:1034C8001A607B681B6800221A607B681B680022F0
:1034D8005A607B681B6800229A607B681B68002220
:1034E800DA607B681B6800221A617B681B682122EE
:1034F8005A61786800F0B5FC0346FB607B680022DF
:10350800DA637B6800221A647B6800225A647B684D
:1035180000229A647B680022DA647B6800221A65BC
:103528007B68DB6D3F229A40FB689A607B680022CB
:103538005A657B68002283F835207B68002283F86F
:103548003420002318461037BD4680BD80B586B0AC
:1035580000AFF860B9607A603B600023FB75FB68D8
:1035680093F83430012B01D1022326E0FB680122B5
:1035780083F83420FB6893F83530DBB2012B15D182
:10358800FB68022283F83520FB6800225A653B68F5
:103598007A68B968F86800F037FCFB681B681A6835
:1035A800FB681B6842F001021A6005E0FB68002214
:1035B80083F834200223FB75FB7D18461837BD4677
:1035C80080BD80B586B000AFF860B9607A603B60B6
:1035D8000023FB75FB689B6D3B61FB6893F83430F7
:1035E800012B01D1022340E0FB68012283F834203B
:1035F800FB6893F83530DBB2012B2FD1FB68022230
:1036080083F83520FB6800225A653B687A68B968F8
:10361800F86800F0F9FBFB68DB6D3F229A403B69D4
:103628009A60FB681B681A68FB681B6842F0160200
:103638001A60FB681B6C002B07D0FB681B681A68B4
:10364800FB681B6842F008021A60FB681B681A686E
:10365800FB681B6842F001021A6005E0FB68002263
:1036680083F834200223FB75FB7D18461837BD46C6
:1036780080BD80B584B000AF78607B689B6DFB60CF
:1036880001F024FFB8607B6893F83530DBB2022B79
:1036980008D07B6880225A657B68002283F8342032
:1036A800012352E07B681B681A687B681B6822F05C
:1036B80016021A607B681B685A697B681B6822F0CF
:1036C80080025A617B681B6C002B03D17B689B6C62
:1036D800002B07D07B681B681A687B681B6822F080
:1036E80008021A607B681B681A687B681B6822F0EE
:1036F80001021A6013E001F0E9FE0246BB68D31A22
:10370800052B0CD97B6820225A657B68002283F838
:1037180034207B68032283F83520032315E07B6877
:103728001B681B6803F00103002BE4D17B68DB6D89
:103738003F229A40FB689A607B68002283F8342015
:103748007B68012283F83520002318461037BD46D0
:1037580080BD80B483B000AF78607B6893F8353063
:10376800DBB2022B04D07B6880225A6501230CE06F
:103778007B68052283F835207B681B681A687B689C
:103788001B6822F001021A60002318460C37BD4658
:1037980080BC704780B58AB000AFF8600B467A608D
:1037A800FB720023FB7701F091FEB861FB6893F888
:1037B8003530DBB2022B08D0FB6880225A65FB68E3
:1037C800002283F834200123BFE0FB681B681B68D4
:1037D80003F48073002B05D0FB684FF480725A65A0
:1037E8000123B2E0FB7A002B06D1FB68DB6D2022B7
:1037F80002FA03F37B6205E0FB68DB6D102202FA34
:1038080003F37B62FB689B6D7B617B691B683B6292
:103818005AE07B68B3F1FF3F17D07B68002B07D0D5
:1038280001F054FE0246BB69D31A7A689A420CD258
:10383800FB6820225A65FB68002283F83420FB6865
:10384800012283F8352003237FE07B691B683B62F4
:10385800FB68DB6D08229A403B6A1340002B0BD0B3
:10386800FB685B6D43F00102FB685A65FB68DB6D22
:1038780008229A407B699A60FB68DB6D01229A40B6
:103888003B6A1340002B0BD0FB685B6D43F00202D0
:10389800FB685A65FB68DB6D01229A407B699A6078
:1038A800FB68DB6D04229A403B6A1340002B0BD067
:1038B800FB685B6D43F00402FB685A65FB68DB6DCF
:1038C80004229A407B699A603A6A7B6A1340002B0B
:1038D80005D1FB685B6D03F00103002B99D0FB68F1
:1038E8005B6D002B18D0FB685B6D03F00103002BA8
:1038F80012D0F868FFF7BDFEFB68DB6D30229A40F6
:103908007B699A60FB68002283F83420FB680122F7
:1039180083F83520012318E0FB7A002B0ED1FB68D1
:10392800DB6D30229A407B699A60FB68002283F83D
:103938003420FB68012283F8352005E0FB68DB6D45
:1039480010229A407B699A60FB7F18462837BD464B
:1039580080BD80B586B000AF78600023BB608E4B19
:103968001B688E4AA2FB03239B0A7B617B689B6DC5
:103978003B613B691B68FB607B68DB6D08229A40F2
:10398800FB681340002B1AD07B681B681B6803F088
:103998000403002B13D07B681B681A687B681B68BC
:1039A80022F004021A607B68DB6D08229A403B69AA
:1039B8009A607B685B6D43F001027B685A657B689F
:1039C800DB6D01229A40FB681340002B12D07B6804
:1039D8001B685B6903F08003002B0BD07B68DB6DF1
:1039E80001229A403B699A607B685B6D43F0020252
:1039F8007B685A657B68DB6D04229A40FB6813403C
:103A0800002B12D07B681B681B6803F00203002B95
:103A18000BD07B68DB6D04229A403B699A607B6817
:103A28005B6D43F004027B685A657B68DB6D10228E
:103A38009A40FB681340002B43D07B681B681B68C7
:103A480003F00803002B3CD07B68DB6D10229A4002
:103A58003B699A607B681B681B6803F48023002B12
:103A680018D07B681B681B6803F40023002B08D15F
:103A78007B681B6C002B24D07B681B6C786898478C
:103A88001FE07B689B6C002B1BD07B689B6C786865
:103A9800984716E07B681B681B6803F48073002B4B
:103AA80007D17B681B681A687B681B6822F00802CC
:103AB8001A607B681B6C002B03D07B681B6C7868D2
:103AC80098477B68DB6D20229A40FB681340002BE7
:103AD80000F08E807B681B681B6803F01003002BC6
:103AE80000F086807B68DB6D20229A403B699A60F3
:103AF8007B6893F83530DBB2052B36D17B681B68C1
:103B08001A687B681B6822F016021A607B681B68BB
:103B18005A697B681B6822F080025A617B681B6CBB
:103B2800002B03D17B689B6C002B07D07B681B683C
:103B38001A687B681B6822F008021A607B68DB6DD4
:103B48003F229A403B699A607B68002283F83420C0
:103B58007B68012283F835207B681B6D002B7DD0A4
:103B68007B681B6D7868984778E07B681B681B68E2
:103B780003F48023002B1CD07B681B681B6803F4AC
:103B88000023002B0CD17B685B6C002B30D07B684A
:103B98005B6C786898472BE000000020B5814E1BCD
:103BA8007B68DB6B002B23D07B68DB6B78689847DE
:103BB8001EE07B681B681B6803F48073002B0FD121
:103BC8007B681B681A687B681B6822F010021A6001
:103BD8007B68002283F834207B68012283F8352033
:103BE8007B68DB6B002B03D07B68DB6B78689847BE
:103BF8007B685B6D002B32D07B685B6D03F0010343
:103C0800002B22D07B68052283F835207B681B684F
:103C18001A687B681B6822F001021A60BB680133CE
:103C2800BB607A699A4207D37B681B681B6803F0FC
:103C38000103002BF2D100E000BF7B68002283F86B
:103C480034207B68012283F835207B68DB6C002BED
:103C580005D07B68DB6C7868984700E000BF1837B0
:103C6800BD4680BD80B487B000AFF8600B467A606F
:103C7800FB720023FB75FB6893F83430012B01D1EC
:103C880002233CE0FB68012283F83420FB6893F8A8
:103C98003530DBB2012B29D1FB7A052B29D801A2BB
:103CA80052F823F0C53C0008CD3C0008D53C00087C
:103CB800DD3C0008E53C0008ED3C0008FB687A683C
:103CC800DA6317E0FB687A681A6413E0FB687A68BD
:103CD8005A640FE0FB687A689A640BE0FB687A68BC
:103CE800DA6407E0FB687A681A6503E00123FB756C
:103CF80000E000BFFB68002283F83420FB7D1846F3
:103D08001C37BD4680BC704780B485B000AF786072
:103D18000B46FB700023FB737B6893F83430012B50
:103D280001D1022353E07B68012283F834207B68A9
:103D380093F83530DBB2012B42D1FB78062B3CD807
:103D480001A252F823F000BF6D3D0008753D000840
:103D58007D3D0008853D00088D3D0008953D000823
:103D68009D3D00087B680022DA632BE07B68002217
:103D78001A6427E07B6800225A6423E07B680022EB
:103D88009A641FE07B680022DA641BE07B680022EB
:103D98001A6517E07B680022DA637B6800221A64E0
:103DA8007B6800225A647B6800229A647B68002240
:103DB800DA647B6800221A6504E00123FB7301E0E2
:103DC8000123FB737B68002283F83420FB7B1846B1
:103DD8001437BD4680BC704780B483B000AF7860AC
:103DE8007B6893F83530DBB218460C37BD4680BC8B
:103DF800704780B483B000AF78607B685B6D18460D
:103E08000C37BD4680BC704780B485B000AFF86001
:103E1800B9607A603B60FB681B681A68FB681B68BE
:103E280022F480221A60FB681B683A685A60FB68B3
:103E38009B68402B08D1FB681B687A689A60FB680E
:103E48001B68BA68DA6007E0FB681B68BA689A60A2
:103E5800FB681B687A68DA6000BF1437BD4680BC0F
:103E6800704780B485B000AF78607B681B68DBB2B0
:103E7800103B144AA2FB03231B09FB60124AFB6890
:103E880013441B781A467B68DA65FB68032B09D94B
:103E98007B681B6823F47F7323F003031A1D7B6878
:103EA8009A6507E07B681B6823F47F7323F003039C
:103EB8007A6893657B689B6D18461437BD4680BC4D
:103EC800704700BFABAAAAAAF45F000880B485B007
:103ED80000AF78600023FB737B689B6ABB607B68DC
:103EE8009B69002B1FD1BB68032B56D801A252F83F
:103EF80023F000BF0D3F00081F3F00080D3F0008DA
:103F0800A33F00087B68DB6A03F08073002B46D070
:103F18000123FB7343E07B68DB6AB3F1C07F40D1C8
:103F28000123FB733DE07B689B69B3F5005F21D1FA
:103F3800BB68032B37D801A252F823F0553F00087D
:103F48005B3F0008553F00086D3F00080123FB73E5
:103F580030E07B68DB6A03F08073002B25D00123F7
:103F6800FB7322E07B68DB6AB3F1C07F1FD10123BA
:103F7800FB731CE0BB68022B03D9BB68032B03D07F
:103F880018E00123FB7315E07B68DB6A03F080739C
:103F9800002B0ED00123FB730BE000BF0AE000BF2B
:103FA80008E000BF06E000BF04E000BF02E000BF79
:103FB80000E000BFFB7B18461437BD4680BC704745
:103FC80080B485B000AF78607B6803F00703FB60BE
:103FD8000C4BDB68BB60BA684FF6FF031340BB604D
:103FE800FB681A02BB68134343F0BF6343F4003312
:103FF800BB60044ABB68D36000BF1437BD4680BCB1
:10400800704700BF00ED00E080B400AF044BDB68F0
:104018001B0A03F007031846BD4680BC704700BF63
:1040280000ED00E080B483B000AF0346FB7197F960
:104038000730002B0BDBFB7903F01F02064997F9C9
:1040480007305B09012000FA02F241F8232000BF83
:104058000C37BD4680BC704700E100E080B483B0F7
:1040680000AF0346FB7197F90730002B12DBFB7991
:1040780003F01F020A4997F907305B09012000FA8B
:1040880002F2203341F82320BFF34F8F00BFBFF364
:104098006F8F00BF00BF0C37BD4680BC704700BFA4
:1040A80000E100E080B483B000AF0346FB7197F9EC
:1040B8000730002B0EDB0A4A97F907305B094033BB
:1040C80052F82320FB7903F01F0322FA03F303F0CD
:1040D800010300E0002318460C37BD4680BC70473A
:1040E80000E100E080B483B000AF0346FB7197F9AC
:1040F8000730002B0CDBFB7903F01F02074997F907
:1041080007305B09012000FA02F2403341F823200E
:1041180000BF0C37BD4680BC704700BF00E100E01F
:1041280080B483B000AF0346FB7197F90730002BCA
:104138000CDBFB7903F01F02074997F907305B098D
:10414800012000FA02F2603341F8232000BF0C3747
:10415800BD4680BC704700BF00E100E080B483B07A
:1041680000AF0346FB7197F90730002B0EDB0A4AB4
:1041780097F907305B09803352F82320FB7903F065
:104188001F0322FA03F303F0010300E0002318469B
:104198000C37BD4680BC704700E100E080B483B0B6
:1041A80000AF03463960FB7197F90730002B0ADB33
:1041B8003B68DAB20C4997F907301201D2B20B44C6
:1041C80083F800230AE03B68DAB20849FB7903F078
:1041D8000F03043B1201D2B20B441A7600BF0C370E
:1041E800BD4680BC704700BF00E100E000ED00E084
:1041F80080B483B000AF0346FB7197F90730002BFA
:1042080009DB0C4A97F90730134493F80033DBB203
:104218001B09DBB209E0084AFB7903F00F03043BF2
:1042280013441B7EDBB21B09DBB218460C37BD46B4
:1042380080BC704700E100E000ED00E080B489B088
:1042480000AFF860B9607A60FB6803F00703FB61B0
:10425800FB69C3F10703042B28BF0423BB61FB6977
:104268000433062B02D9FB69033B00E000237B6182
:104278004FF0FF32BB6902FA03F3DA43BB681A4016
:104288007B699A404FF0FF317B6901FA03F3D94308
:104298007B680B40134318462437BD4680BC7047E3
:1042A80080B489B000AFF860B9607A603B60BB68E1
:1042B80003F00703FB61FB69C3F10703042B28BF65
:1042C8000423BB61FB690433062B02D9FB69033B5A
:1042D80000E000237B61FA687B69DA404FF0FF3128
:1042E800BB6901FA03F3DB431A407B681A604FF09D
:1042F800FF327B6902FA03F3DA43FB681A403B6832
:104308001A6000BF2437BD4680BC704780B400AF38
:10431800BFF34F8F00BF064BDB6803F4E06204492C
:10432800044B1343CB60BFF34F8F00BF00BFFDE7C3
:1043380000ED00E00400FA0580B582B000AF7860B7
:104348007B68013BB3F1807F01D301230FE00A4A68
:104358007B68013B53600F214FF0FF30FFF71EFFD2
:10436800054B00229A60044B07221A600023184666
:104378000837BD4680BD00BF10E000E080B582B0C0
:1043880000AF78607868FFF71BFE00BF0837BD46AE
:1043980080BD80B586B000AF0346B9607A60FB7314
:1043A80000237B61FFF730FE78617A68B968786925
:1043B800FFF744FF024697F90F3011461846FFF7FA
:1043C800EDFE00BF1837BD4680BD80B582B000AF96
:1043D8000346FB7197F907301846FFF723FE00BF25
:1043E8000837BD4680BD80B582B000AF0346FB717B
:1043F80097F907301846FFF731FE00BF0837BD466A
:1044080080BD80B500AFFFF781FF80B582B000AFF7
:1044180078607868FFF790FF034618460837BD466E
:1044280080BD80B400AFBFF35F8F00BF064B5B6AEF
:10443800054A23F480335362044B00225A6000BFBC
:10444800BD4680BC704700BF00ED00E090ED00E085
:1044580080B483B000AF78600A4A7B6843F00103F8
:104468005360094B5B6A084A43F480335362BFF3D5
:104478004F8F00BFBFF36F8F00BF00BF0C37BD4623
:1044880080BC704790ED00E000ED00E080B483B0A0
:1044980000AF78607B685A781D4B9A607B681B7800
:1044A800002B29D01A4A7B685B68D3607B681B7B2A
:1044B8001A077B68DB7A1B061A437B689B7ADB0446
:1044C8001A437B685B7B9B041A437B689B7B5B047A
:1044D8001A437B68DB7B1B041A437B685B7A1B02ED
:1044E8001A437B681B7A5B0013437A68127811467B
:1044F800074A0B43136105E0054B0022DA60044BC1
:1045080000221A6100BF0C37BD4680BC704700BF4F
:1045180090ED00E080B500AFFFF776FD0346184642
:1045280080BD80B584B000AFB9607A603B60034657
:10453800FB7397F90F301846FFF75AFE3B687A6805
:10454800B968FFF7ADFE00BF1037BD4680BD80B526
:1045580082B000AF0346FB7197F907301846FFF7A2
:10456800C1FD00BF0837BD4680BD80B582B000AF31
:104578000346FB7197F907301846FFF793FD03468A
:1045880018460837BD4680BD80B582B000AF0346E7
:10459800FB7197F907301846FFF7C2FD00BF0837CF
:1045A800BD4680BD80B582B000AF0346FB7197F968
:1045B80007301846FFF7D2FD034618460837BD46B0
:1045C80080BD80B483B000AF78607B68042B06D1CF
:1045D800084B1B68074A43F00403136005E0054BCA
:1045E8001B68044A23F00403136000BF0C37BD4660
:1045F80080BC704710E000E080B500AF00F002F822
:1046080000BF80BD80B400AF00BFBD4680BC70470E
:1046180080B487B000AF786039607B68002B02D027
:104628003B68002B01D101238FE03B681A687B6847
:104638001A603B681B6803F01F037B6101227B69DA
:1046480002FA03F33B613B681B6803F00073002B1D
:1046580052D03B689B6803F00103002B06D03D4B0A
:104668009A683C493B6913438B6006E0394B9A686A
:104678003B69DB43374913408B603B689B6803F019
:104688000203002B06D0334BDA6832493B691343E7
:10469800CB6006E02F4BDA683B69DB432D491340BA
:1046A800CB603B681B6803F0C063B3F1C06F23D1D4
:1046B800294A7B699B08023352F82330FB607B69E7
:1046C80003F003039B000F2202FA03F3DB43FA68AB
:1046D8001340FB603B68DA687B6903F003039B00C7
:1046E80002FA03F3FA681343FB601B497B699B08D2
:1046F8000233FA6841F823203B685B6803F0010342
:10470800002B06D0134B1A6812493B6913430B6000
:1047180006E0104B1A683B69DB430E4913400B60F7
:104728003B685B6803F00203002B06D0094B5A680C
:1047380008493B6913434B6006E0064B5A683B69DE
:10474800DB43044913404B60002318461C37BD4621
:1047580080BC7047003C01400038014080B487B0FD
:1047680000AF786039607B68002B02D03B68002B73
:1047780001D101236AE07B681A683B681A603B68CC
:104788001B6803F01F037B6101227B6902FA03F3B4
:104798003B61314B1A683B691340002B03D03B68DF
:1047A80001225A6002E03B6800225A602A4B5A688C
:1047B8003B691340002B05D03B685B6843F002025D
:1047C8003B685A603B681B6803F00073002B36D0C7
:1047D800214B9A683B691340002B03D03B680122A8
:1047E8009A6002E03B6800229A601B4BDA683B69DA
:1047F8001340002B05D03B689B6843F002023B68DE
:104808009A603B681B6803F0C063B3F1C06F12D1B4
:10481800124A7B699B08023352F82330FB607B699C
:10482800DB4303F003039B00FA6802FA03F31A0E52
:104838003B68DA6009E03B680022DA6005E03B6823
:1048480000229A603B680022DA60002318461C3771
:10485800BD4680BC704700BF003C014000380140A5
:1048680080B487B000AF78607B68002B01D101234A
:104878004CE07B681B6803F01F037B6101227B69A6
:1048880002FA03F33B61244B1A683B69DB43224974
:1048980013400B60204B5A683B69DB431E491340A9
:1048A8004B607B681B6803F00073002B2DD01A4BFC
:1048B8009A683B69DB43184913408B60164BDA68EA
:1048C8003B69DB4314491340CB607B681B6803F0EA
:1048D800C063B3F1C06F18D1104A7B699B080233DB
:1048E80052F82330FB607B6903F003039B000F221F
:1048F80002FA03F3DB43FA681340FB6007497B695C
:104908009B080233FA6841F82320002318461C3715
:10491800BD4680BC704700BF003C014000380140E4
:1049280080B487B000AFF8600B467A60FB72002352
:10493800FB75FB7A002B03D1FB687A685A6002E0AA
:104948000123FB7500BFFB7D18461C37BD4680BCA4
:10495800704780B483B000AF786039607B68002B03
:1049680001D1012303E07B683A681A6000231846E6
:104978000C37BD4680BC704780B584B000AF786006
:104988007B681B6803F01F03012202FA03F3FB6034
:104998000A4B5B69FA681340BB60BB68002B09D0FF
:1049A800064AFB6853617B685B68002B02D07B6812
:1049B8005B68984700BF1037BD4680BD003C01408A
:1049C80080B487B000AF786039607B681B6803F0FB
:1049D8001F037B6101227B6902FA03F33B61074BEA
:1049E8005A693B691A407B6922FA03F3FB60FB684A
:1049F80018461C37BD4680BC704700BF003C0140CC
:104A080080B485B000AF786039607B681B6803F0BC
:104A18001F03012202FA03F3FB60044AFB68536197
:104A280000BF1437BD4680BC704700BF003C014042
:104A380080B485B000AF78607B681B6803F01F0303
:104A4800012202FA03F3FB60034AFB68136100BF0B
:104A58001437BD4680BC7047003C014080B489B023
:104A680000AF7860396000237B6100233B6100233D
:104A7800BB610023FB616BE10122FB6902FA03F3CE
:104A88007B613B681B687A6913403B613A697B69C3
:104A98009A4240F05A813B685B68012B0BD03B6817
:104AA8005B68022B07D03B685B68112B03D03B681F
:104AB8005B68122B30D17B689B68BB61FB695B002C
:104AC800032202FA03F3DB43BA691340BB613B6874
:104AD800DA68FB695B0002FA03F3BA691343BB6146
:104AE8007B68BA699A607B685B68BB610122FB6975
:104AF80002FA03F3DB43BA691340BB613B685B68A6
:104B08001B0903F00102FB6902FA03F3BA691343B4
:104B1800BB617B68BA695A607B68DB68BB61FB690B
:104B28005B00032202FA03F3DB43BA691340BB615B
:104B38003B689A68FB695B0002FA03F3BA6913439E
:104B4800BB617B68BA69DA603B685B68022B03D09B
:104B58003B685B68122B23D1FB69DA087B68083253
:104B680053F82230BB61FB6903F007039B000F2257
:104B780002FA03F3DB43BA691340BB613B681A6965
:104B8800FB6903F007039B0002FA03F3BA691343B6
:104B9800BB61FB69DA087B680832B96943F82210FF
:104BA8007B681B68BB61FB695B00032202FA03F3A5
:104BB800DB43BA691340BB613B685B6803F00302DF
:104BC800FB695B0002FA03F3BA691343BB617B68B4
:104BD800BA691A603B685B6803F08053002B00F0E9
:104BE800B4800023FB605F4B5B6C5E4A43F48043F8
:104BF80053645C4B5B6C03F48043FB60FB685A4A6C
:104C0800FB699B08023352F82330BB61FB6903F050
:104C180003039B000F2202FA03F3DB43BA69134034
:104C2800BB617B68514A93422BD07B68504A9342C0
:104C380025D07B684F4A93421FD07B684E4A9342E7
:104C480019D07B684D4A934213D07B684C4A9342F3
:104C58000DD07B684B4A934207D07B684A4A9342FF
:104C680001D107230EE008230CE006230AE0052300
:104C780008E0042306E0032304E0022302E0012302
:104C880000E00023FA6902F0030292009340BA6937
:104C98001343BB613449FB699B080233BA6941F885
:104CA80023203A4B1B68BB613B69DB43BA6913405D
:104CB800BB613B685B6803F48033002B03D0BA699F
:104CC8003B691343BB61314ABB6913602F4B5B6877
:104CD800BB613B69DB43BA691340BB613B685B68F6
:104CE80003F40033002B03D0BA693B691343BB615B
:104CF800264ABB695360254B9B68BB613B69DB4314
:104D0800BA691340BB613B685B6803F48013002BEE
:104D180003D0BA693B691343BB611C4ABB69936002
:104D28001A4BDB68BB613B69DB43BA691340BB6163
:104D38003B685B6803F40013002B03D0BA693B6936
:104D48001343BB61114ABB69D360FB690133FB6143
:104D5800FB690F2B7FF690AE00BF00BF2437BD461E
:104D680080BC704700380240003801400000024013
:104D78000004024000080240000C024000100240FB
:104D88000014024000180240001C0240003C014090
:104D980080B487B000AF7860396000233B6100239E
:104DA800FB600023BB6000237B61CDE001227B69AF
:104DB80002FA03F33B613A683B691340FB60FA6807
:104DC8003B699A4240F0BD80644A7B699B08023384
:104DD80052F82330BB607B6903F003039B000F226A
:104DE80002FA03F3BA681340BB607B685C4A9342DB
:104DF8002BD07B685B4A934225D07B685A4A934202
:104E08001FD07B68594A934219D07B68584A93420D
:104E180013D07B68574A93420DD07B68564A934219
:104E280007D07B68554A934201D107230EE0082337
:104E38000CE006230AE0052308E0042306E0032328
:104E480004E0022302E0012300E000237A6902F073
:104E5800030292009340BA689A4232D1484B1A68CA
:104E6800FB68DB43464913400B60454B5A68FB68B7
:104E7800DB43434913404B60414B9A68FB68DB4373
:104E88003F4913408B603E4BDA68FB68DB433C4983
:104E98001340CB607B6903F003039B000F2202FAE7
:104EA80003F3BB602D4A7B699B08023352F8231039
:104EB800BB68DA4329487B699B080A40023340F8FB
:104EC80023207B681A687B695B00032101FA03F3DE
:104ED800DB431A407B681A607B69DA087B68083212
:104EE80053F822107B6903F007039B000F2202FA94
:104EF80003F3DB437A69D20819407B68083243F828
:104F080022107B68DA687B695B00032101FA03F3EE
:104F1800DB431A407B68DA607B685A6801217B6949
:104F280001FA03F3DB431A407B685A607B689A688E
:104F38007B695B00032101FA03F3DB431A407B68BA
:104F48009A607B6901337B617B690F2B7FF62EAFFB
:104F580000BF00BF1C37BD4680BC70470038014009
:104F6800000002400004024000080240000C024019
:104F7800001002400014024000180240001C0240C9
:104F8800003C014080B485B000AF78600B467B8060
:104F98007B681A697B881340002B02D00123FB73BE
:104FA80001E00023FB73FB7B18461437BD4680BC29
:104FB800704780B483B000AF78600B467B8013469F
:104FC8007B707B78002B03D07A887B689A6103E03A
:104FD8007B881A047B689A6100BF0C37BD4680BC89
:104FE800704780B483B000AF78600B467B807B68E5
:104FF8005A697B881A407B889A4204D17B881A04B4
:105008007B689A6102E07A887B689A6100BF0C37F6
:10501800BD4680BC704780B485B000AF78600B4651
:105028007B804FF48033FB607A88FB681343FB6016
:10503800FA687B68DA617A887B68DA61FA687B6883
:10504800DA617B68DB69FB607B68DB6903F48033CA
:10505800002B01D0002300E0012318461437BD4679
:1050680080BC704780B582B000AF0346FB80084B18
:105078005A69FB881340002B06D0054AFB88536108
:10508800FB88184600F006F800BF0837BD4680BD0B
:10509800003C014080B483B000AF0346FB8000BFF2
:1050A8000C37BD4680BC704780B400AF074B1B6A05
:1050B800064A43F080531362044B1B6A034A23F0E9
:1050C8008053136200BFBD4680BC70470038024061
:1050D80080B400AF034B01221A6000BFBD4680BCFC
:1050E800704700BF20000E4280B400AF034B00227F
:1050F8001A6000BFBD4680BC704700BF20000E424A
:1051080080B483B000AF78602A4B1B6823F0E002BC
:105118007B681B68274913430B60274B5B68264A4B
:1051280023F480335360244B1B68234A23F48033D1
:105138001360214B9B68204A23F4803393601E4BF5
:10514800DB681D4A23F48033D3607B685B6803F413
:105158008033002B05D0184B1B68174A43F4803363
:1051680013607B685B6803F40033002B05D0124B97
:105178005B68114A43F4803353607B685B6803F0D3
:105188000103002B05D00C4B9B680B4A43F480337A
:1051980093607B685B6803F00203002B05D0064B25
:1051A800DB68054A43F48033D36000BF0C37BD4643
:1051B80080BC704700700040003C014080B400AFE4
:1051C800034B01221A6000BFBD4680BC704700BF78
:1051D80010000E4280B400AF034B00221A6000BFDB
:1051E800BD4680BC704700BF10000E4280B483B03B
:1051F80000AF7860054B5A6804497B6813434B60DD
:1052080000BF0C37BD4680BC704700BF007000402F
:1052180080B483B000AF7860054B5A687B68DB4385
:10522800034913404B6000BF0C37BD4680BC704734
:105238000070004080B483B000AF78600B46FB700C
:10524800094B1B69084A23F004031361FB78012BFF
:1052580001D130BF02E040BF20BF20BF00BF0C37E4
:10526800BD4680BC704700BF00ED00E080B483B04D
:1052780000AF78600B46FB70104B1B6823F00302ED
:105288000E497B6813430B600D4B1B690C4A43F0B6
:1052980004031361FB78012B01D130BF02E040BF4A
:1052A80020BF20BF064B1B69054A23F00403136186
:1052B80000BF0C37BD4680BC704700BF007000407F
:1052C80000ED00E080B400AF084B1B68074A43F0CC
:1052D80002031360064B1B69054A43F0040313617C
:1052E80030BF00BFBD4680BC704700BF00700040A3
:1052F80000ED00E080B500AF064B5B6903F4803336
:10530800002B05D000F008F8024B4FF480325A61A8
:1053180000BF80BD003C014080B400AF00BFBD4667
:1053280080BC704780B400AF044B1B69034A43F04C
:105338000203136100BFBD4680BC704700ED00E06A
:1053480080B400AF044B1B69034A23F002031361C6
:1053580000BFBD4680BC704700ED00E080B400AFE0
:10536800044B1B69034A43F01003136100BFBD4699
:1053780080BC704700ED00E080B400AF044B1B69AF
:10538800034A23F01003136100BFBD4680BC704779
:1053980000ED00E080B500AF0E4B1B680D4A43F4EA
:1053A800007313600B4B1B680A4A43F48063136055
:1053B800084B1B68074A43F4807313600320FEF709
:1053C800DDFF002000F040F8FBF764F800231846E2
:1053D80080BD00BF003C024080B500AF134B4FF0CA
:1053E800FF321A62114B00221A62104B4FF0FF3243
:1053F8005A620E4B00225A620C4B4FF0FF321A6170
:105408000A4B00221A61094B4FF0FF325A61074BD1
:1054180000225A61054B4FF0FF329A61034B00227C
:105428009A6100F00BF80023184680BD003802404E
:1054380080B400AF00BFBD4680BC704780B400AFE9
:1054480000BFBD4680BC704780B582B000AF7860B1
:10545800124B1A68124B1B7819464FF47A73B3FB38
:10546800F1F3B2FBF3F31846FEF7CFFF0346002B28
:1054780001D001230EE07B680F2B0AD8002279683F
:105488004FF0FF30FEF785FF064A7B681360002364
:1054980000E0012318460837BD4680BD0000002003
:1054A8000C0000200800002080B400AF054B1B78DA
:1054B8001A46054B1B681344034A136000BFBD46D8
:1054C80080BC70470C0000206804002080B400AF46
:1054D800024B1B681846BD4680BC70476804002014
:1054E80080B400AF024B1B681846BD4680BC7047AD
:1054F8000800002080B584B000AF0346FB7100238C
:10550800FB730E4B1B78FA799A4212D00B4B1B781F
:10551800BB730A4AFB791370094B1B681846FFF7DF
:1055280093FF0346FB73FB7B002B02D0034ABB7B34
:105538001370FB7B18461037BD4680BD0C00002059
:105548000800002080B400AF024B1B781846BD4607
:1055580080BC70470C00002080B584B000AF786034
:10556800FFF7B4FFB8607B68FB60FB68B3F1FF3FEF
:1055780005D00A4B1B781A46FB681344FB6000BF32
:10558800FFF7A4FF0246BB68D31AFA689A42F7D815
:1055980000BF00BF1037BD4680BD00BF0C00002013
:1055A80080B400AF044B1B68034A23F00203136066
:1055B80000BFBD4680BC704710E000E080B400AF7B
:1055C800044B1B68034A43F00203136000BFBD4647
:1055D80080BC704710E000E080B400AF024B184672
:1055E800BD4680BC704700BF000A070180B400AF09
:1055F800034B1B681B0C1846BD4680BC704700BF98
:10560800002004E080B400AF034B1B68C3F30B0316
:105618001846BD4680BC7047002004E080B400AF47
:10562800044B5B68034A43F00103536000BFBD4667
:1056380080BC7047002004E080B400AF044B5B6876
:10564800034A23F00103536000BFBD4680BC704786
:10565800002004E080B400AF044B5B68034A43F0C9
:105668000203536000BFBD4680BC7047002004E0C1
:1056780080B400AF044B5B68034A23F00203536015
:1056880000BFBD4680BC7047002004E080B400AF76
:10569800044B5B68034A43F00403536000BFBD46F4
:1056A80080BC7047002004E080B400AF044B5B6806
:1056B800034A23F00403536000BFBD4680BC704713
:1056C800002004E080B400AF034B01221A6000BF41
:1056D800BD4680BC704700BF0004274280B400AFBD
:1056E800034B00221A6000BFBD4680BC704700BF54
:1056F8000004274280B400AF024B1B681846BD4621
:1057080080BC7047107AFF1F80B400AF024B1B6843
:105718001846BD4680BC7047147AFF1F80B400AF9E
:10572800024B1B681846BD4680BC7047187AFF1F9D
:1057380080B586B000AF786000237B6100233B61B1
:105748007B681B6803F00103002B05D17B681B688D
:1057580003F00403002B35D0624B00221A60FFF7D8
:10576800B5FE786108E0FFF7B1FE02467B69D31AFF
:10577800022B01D90323B0E05B4B1B6803F00063E5
:10578800002BF0D17B685B689A017B689B681B07DC
:1057980055491343C1F88430524B01221A60FFF770
:1057A80095FE786108E0FFF791FE02467B69D31AFF
:1057B800022B01D9032390E04B4B1B6803F00063D5
:1057C800002BF0D07B681B6803F00203002B00F06D
:1057D80083800023FB60444B1B6C434A43F0805397
:1057E8001364414B1B6C03F08053FB60FB683F4B19
:1057F8001B683E4A43F480731360FFF767FE7861C5
:1058080008E0FFF763FE02467B69D31A022B01D931
:10581800032362E0354B1B6803F48073002BF0D040
:10582800314B1B6F03F440733B613B69002B2FD056
:105838007B68DB6803F440733A699A4228D02A4BA4
:105848001B6F23F440733B61294B01221A60284BDC
:1058580000221A60244A3B691367234B1B6F03F02D
:105868000103012B14D1FFF731FE78610AE0FFF73D
:105878002DFE02467B69D31A41F28832934201D940
:1058880003232AE0184B1B6F03F00203002BEED012
:105898007B68DB6803F44073B3F5407F0DD1124B8E
:1058A8009B6823F4F8127B68DB6823F0704323F4C9
:1058B80040730D4913438B6005E00B4B9B680A4A04
:1058C80023F4F8139360084B1A6F7B68DB68C3F303
:1058D8000B03054913430B67002318461837BD46C9
:1058E80080BD00BF68004742003802400070004099
:1058F800400E474280B485B000AF78607B680322D1
:105908001A60114BD3F884309B09C3F308027B68F3
:105918005A600D4BD3F884301B0F03F007027B68E5
:105928009A60094B9B6803F4F813FB60064B1B6FE6
:1059380003F44072FB681A437B68DA6000BF1437CF
:10594800BD4680BC704700BF0038024080B487B0B5
:1059580000AF786000237B6100233B610023FB607C
:105968000023BB607B68012B3ED1224B9B6803F46C
:105978000003FB60FB68002B05D0FB68012B2FD1CF
:105988001D4B7B612FE01B4B5B6803F48003B3F571
:10599800800F08D1174B5B6803F03F03174AB2FB2F
:1059A800F3F33B6107E0134B5B6803F03F03144AD2
:1059B800B2FBF3F33B610F4BD3F884309B09C3F37D
:1059C80008023B6902FB03F3BB600A4BD3F884303F
:1059D8001B0F03F00703BA68B2FBF3F37B6102E025
:1059E80000237B6100BF00BF7B6918461C37BD469A
:1059F80080BC7047003802400080BB0040787D01C1
:105A08000024F40080B584B000AF78601D4B0022FC
:105A18001A60FFF75BFDF86008E0FFF757FD0246E4
:105A2800FB68D31A022B01D9032326E0164B1B6807
:105A380003F00063002BF0D17B681B689A017B6838
:105A48005B681B0710491343C1F884300D4B0122D2
:105A58001A60FFF73BFDF86008E0FFF737FD0246E4
:105A6800FB68D31A022B01D9032306E0064B1B68F7
:105A780003F00063002BF0D0002318461037BD4612
:105A880080BD00BF680047420038024080B582B040
:105A980000AF0D4B00221A60FFF718FD786008E090
:105AA800FFF714FD02467B68D31A022B01D90323A2
:105AB80006E0064B1B6803F00063002BF0D10023BF
:105AC80018460837BD4680BD680047420038024086
